:020000040800F2
:10000000000E0020A9010008AD2A0008BB28000846
:10001000A92A000871160008273300080000000014
:100020000000000000000000000000002D2F00086C
:10003000A926000800000000112C0008413000082B
:10004000C3010008C3010008C3010008C301000880
:10005000C3010008C3010008C3010008C301000870
:10006000C3010008C3010008C3010008C301000860
:10007000C3010008C3010008C3010008C301000850
:10008000C3010008C3010008C3010008C301000840
:10009000C3010008C3010008C3010008C301000830
:1000A000C3010008C3010008C3010008C301000820
:1000B000C3010008C3010008C3010008C301000810
:1000C000C3010008C3010008C3010008C301000800
:1000D000C3010008A5300008C30100082D31000845
:1000E000C3010008C3010008C301000800F002F8C2
:1000F00000F04AF80AA090E8000C82448344AAF178
:100100000107DA4501D100F03FF8AFF2090EBAE875
:100110000F0013F0010F18BFFB1A43F0010318473B
:10012000E03E0000003F0000103A24BF78C878C1CC
:10013000FAD8520724BF30C830C144BF04680C60ED
:10014000704700000023002400250026103A28BF35
:1001500078C1FBD8520728BF30C148BF0B60704739
:10016000662903F0A186782900F07C800020704782
:100170001FB500F019FC04000020002103F008FA6C
:10018000E0601FBD10B510BD00F00AFD1146FFF77D
:10019000EFFF03F0BBF900F028FD03B4FFF7F2FF17
:1001A00003BC03F024F900000948804709480047D0
:1001B000FEE7FEE7FEE7FEE7FEE7FEE7FEE7FEE717
:1001C000FEE7FEE704480549054A064B7047000074
:1001D00045300008ED00000800080020000E002057
:1001E000000A0020000A0020704700000FB41CB570
:1001F000074B06AA7B4469460090059800F0BBFBBC
:100200000020694600F0CAFB1CBC5DF814FB00002E
:10021000A507000070B5044685690068C10601D5D0
:10022000302600E02026C00707D070BDD4E90121A8
:1002300030469047206A401C20626D1EF6D570BD86
:1002400070B5044685690078C00707D170BDD4E950
:10025000012120209047206A401C20626D1EF6D5A7
:1002600070BD000070B504460D4621461068AFF31E
:1002700000802188090502D50F4A7A4402E00E4A1F
:100280007A440E32002104F1240305E000F00F0649
:100290000009965D5E54491C0028F7D120780023A0
:1002A000000704D5702D02D009B102231132204677
:1002B000BDE8704000F0F4B82E3C00002DE9F04796
:1002C0004FF0000A89460446C0F820A02046E168A5
:1002D0008847002876D0252806D0D4E90121904708
:1002E000206A401C2062F1E7E1682046002588472B
:1002F000C4F81CA006460027C4F818A02A2E09D06E
:10030000304603F06DF838B304EB8708303EC8F888
:10031000186019E059F8041B204604EB870291612C
:10032000E1688847012F064618D1E069002820DAE5
:1003300025F020051DE0D8F8180000EB800006EB42
:1003400040003038C8F818002046E1688847064663
:1003500003F046F80028EED1012F0AD02E2E08D146
:100360002046E16888477F1C0646022F45F020059D
:10037000C4DBA069002803DA404245F00105A06112
:10038000E80701D025F01005B6B1A6F14100192803
:1003900002D8203645F400654A463146204625609D
:1003A0004D46FFF7DDFE58B1012806D0ED1D25F0C2
:1003B000070000F1080989E704E005F1040985E771
:1003C00030468AE7206ABDE8F08730B505460B461F
:1003D0002A4613F8014B12F8010B08B1A042F8D0DD
:1003E0001CB1002802D06D1CF1E7284630BD421E2A
:1003F00012F8013F002BFBD111F8013B002B02F852
:10040000013BF9D170474FF000020429C0F012807F
:1004100010F0030C00F01B80CCF1040CBCF1020FB7
:1004200018BF00F8012BA8BF20F8022BA1EB0C018C
:1004300000F00DB85FEAC17C24BF00F8012B00F882
:10044000012B48BF00F8012B70474FF0000200B5A8
:10045000134694469646203922BFA0E80C50A0E8E7
:100460000C50B1F12001BFF4F7AF090728BFA0E895
:100470000C5048BF0CC05DF804EB890028BF40F861
:10048000042B08BF704748BF20F8022B11F0804FA3
:1004900018BF00F8012B70477047704770477047CE
:1004A0002DE9F0470D4699469246044600F124088E
:1004B0000168880604D5E06921F01001216000E0A0
:1004C0000120A84201DD471B00E00027A1697A193D
:1004D00002EB0900081AA0612078C00602D4204669
:1004E000FFF798FE002608E0D4E901211AF806007B
:1004F0009047206A401C761C20624E45F4DB207831
:10050000C0060AD52046FFF785FE06E0D4E90121A2
:1005100030209047206A401C2062381EA7F1010756
:10052000F4DC07E0D4E9012118F805009047206ABF
:10053000401C2062281EA5F10105F3DC2046FFF7D0
:100540007FFE2078000602D50220BDE8F08701205A
:10055000FBE770472DE9FF4F0C461E464FF0FF3773
:100560008BB0D2E90001DDF860800A908A46C1F3C1
:100570000A5505B93D46002108464FF00000BAF182
:10058000000F00F4400005DA00EB80004FF440015A
:1005900001EA50004FEA9059B9F1010F00DDB94668
:1005A0000A9850EA4A000ED044F61050A5F2FF35E2
:1005B00045432F14B8F1000F1ED07542291E1EDDD1
:1005C000C9F100021CE0B8F1010F4FF0000001D0AA
:1005D000302103E0F24305E02154401CB042FBDB34
:1005E00030460022002121540B99C1F80880C1E94E
:1005F00000200FB0BDE8F08FBD1B6D1CDEE74A4642
:1006000000DA694206A800F059FA06AB93E8070041
:1006100003AB83E8070050460A9900F02DFB8DE8F4
:100620000700A0F500501F3800900398002D09DD49
:1006300042F21F014A46084403A90390684600F0AD
:100640008CFD08E0A0F500504A461F3803A903902E
:10065000684600F096FD8DE807000004000C03D00A
:100660004FF0FF30410800E01046B8F1000F03D012
:100670000022009215461EE0751E05D400F098F980
:10068000303262556D1EF9D5B3460122084302D0BF
:1006900000227F1C04E02078302801D100227F1E38
:1006A000002A099786D01DE0112D07DA00F080F9A5
:1006B000303262556D1C50EA0102F5D1084302D078
:1006C0000098C8B10EE00021681E05E0235C625C62
:1006D00063542254401E491C8142F7DBAB46A81BE1
:1006E000401E0990002004F80B000B98099AC0F8EE
:1006F0000880C0E9002B7CE711264FF0000859E77D
:100700002DE9F04F88460446D21D22F0070191B032
:10071000D1E90001CDE90A0102F04EFE02460B9834
:10072000C00F01D02D2007E02068810701D52B20C4
:1007300002E0202101EAC000032A099001D0072A23
:1007400005DB03464146204600F078F90BE12078AE
:10075000800601D5E06900E00620B8F1650F81460A
:1007600006D0B8F1660F18D0B8F1670F70D131E03C
:100770000020B9F1110F009001DB112301E009F114
:1007800001030AAA01A90CA8FFF7E4FEDDE90C7039
:10079000002609F10105834647E001204B46009001
:1007A0004FF000470AAA01A90CA8FFF7D3FEDDE924
:1007B0000DB00C995D46002610B909F101000D1825
:1007C000B9EB050003D4C0F1FF3609F10105A5EB33
:1007D00009002BE0B9F1010F01DA4FF00109002007
:1007E000B9F1110F0090484601DD112300E00346E6
:1007F0000AAA01A90CA8FFF7ADFEDDE90C704D4671
:1008000000268346207800070AD4AB4500DA5D460F
:1008100001A8012D04DD411911F8011C302907D070
:100820004F4502DA17F1040F04DA012082460FE087
:100830006D1EEEE7002F02DCED1B3E4403E0781C4A
:10084000A84200DD7D1CB81B00F1010A4FF00047F3
:100850002078000703D4AA4501DB4FF0FF3A0021BE
:10086000B7F1004F0DF143088DF8431024D002205A
:100870002B23002F01DA7F422D230A21021EA0F133
:10088000010000DC5FB197FBF1FC97FBF1F201FB8B
:100890001C7C17460CF1300C08F801CDEEE7A8F1EE
:1008A000010003702188090501D5452100E065217B
:1008B000A0F1010800F8011C09980FA9A1EB080795
:1008C000FF1D00B10120411901EBEA70A169384414
:1008D000081A401EA0612078C00602D42046FFF707
:1008E00099FC099828B1D4E901219047206A401C5D
:1008F00020622078C00622D52046FFF78BFC1EE040
:10090000002E04DBB34502DD01A8805D00E030204D
:10091000D4E901219047206A401C2062761CAAF18C
:1009200001005FEA000A0AD100F03EF8C0680168E1
:10093000405CD4E901219047206A401C2062281EB7
:10094000A5F10105DCDC07E0D4E9012118F8010B71
:100950009047206A401C2062381EA7F10107F3DC93
:100960002046FFF76DFC032011B043E601694A1CE5
:1009700002610878704700B58FB0CDE901310021E0
:10098000059105497944CDE9031011466846FFF702
:1009900095FC0FB000BD0000E5FFFFFF0A6802F8FC
:1009A000010B0A607047000000487047C007002034
:1009B00030B5B0F10A024FEA900E71F100034EEA31
:1009C000817EB0EB0E0061EB91014FEA101E4EEA02
:1009D000017E10EB0E0041EB11114FEA102E4EEA92
:1009E000016E10EB0E0041EB11214FEA104E4EEA62
:1009F000014E10EB0E0041EB1141401841F1000196
:100A00004FEAD00040EA41704FEAD10110EB800577
:100A10004FEA810444EA907444EB01046D1944EBFD
:100A20000404521BA3414FF0000348BF0A3200D513
:100A300030BD401C41F1000130BD00002DE9F04106
:100A40001F46044603260168072A01F4006004DB00
:100A500008B116A505E016A503E008B115A500E04C
:100A600015A521F010002060A069C01EA0610FB183
:100A7000401EA0612046FFF7CDFB4FB1D4E9012114
:100A800038469047206A401C2062C01C206206E065
:100A9000206AFAE7D4E9012115F8010B9047761E88
:100AA000F8D22046FFF7CCFBBDE8F0814E414E0066
:100AB0006E616E00494E4600696E66002DE9F04792
:100AC000814616468AB0334878440DC88DE80D003B
:100AD00030487844801C03AC0DC884E80D0041F612
:100AE0009B300844372190FBF1F290FBF1F5A5F122
:100AF000800501FB12041B3C02D56442012000E08A
:100B00000020DFF890A080460027FA44AAF1BE0A30
:100B10000DE0E00709D03246684607EB47010AEBD3
:100B2000810100F02EFB8DE8070064107F1C002C73
:100B3000EFD1184F7F44AC3F18E0E80714D007EB23
:100B400004100DF1180A90E80E008AE80E00C06843
:100B5000F04201D198190890324606A903A800F086
:100B600010FB03AB83E807006D10641C002DE4D17B
:100B700032466946B8F1000F03A802D000F0EDFA42
:100B800001E000F0FEFAC9E90001C9F808200AB046
:100B9000BDE8F0878434000000487047A0070020BB
:100BA0007546FFF7F9FFAE4605006946534620F04B
:100BB0000700854618B020B5FFF704FBBDE82040CC
:100BC0004FF000064FF000074FF000084FF0000B09
:100BD00021F00701AC46ACE8C009ACE8C009ACE8BC
:100BE000C009ACE8C0098D4670470446AFF30080E9
:100BF0002046FFF7D2FA00004FF0013C50F8042BDA
:100C000051F8043B9A4221D1A2EB0C03934313EA1F
:100C1000CC1317D150F8042B51F8043B9A4215D14C
:100C2000A2EB0C03934313EACC130BD150F8042B23
:100C300051F8043B9A4209D1A2EB0C03934313EA07
:100C4000CC13DBD04FF00000704700BFD01A01BAC0
:100C5000B1FA81F101F0180122FA01F0CB40C1F1A3
:100C60002001DBB2C0B2C01A2CFA01F3D11A9143B1
:100C700011EAC311E6D170475FEA400C08BF91F05A
:100C8000000F4FEA8C234FEAC12243EA51514FEA49
:100C90001C5018BF00F5F0404FEA300018BF41F07B
:100CA00000415FEA6C5C00F02980BCF1FF3F08BFA7
:100CB00040F080407047130C06BF12044FF0100C38
:100CC0004FF0000C130E04BF12020CF1080C130FAE
:100CD00004BF12010CF1040C930F04BF92000CF13D
:100CE000020CD30F04BF52000CF1010C11464FF05F
:100CF0000002A0F11F00A0EB0C00704711F0004FA4
:100D000008BF704731F000413FF4D5AF0B0C06BF70
:100D100009044FF0100C4FF0000C0B0E04BF090239
:100D20000CF1080C0B0F04BF09010CF1040C8B0F24
:100D300004BF89000CF1020CCB0F04BF49000CF179
:100D4000010CCCF12003A0EB0C0022FA03F302FA11
:100D50000CF241EA030100F10100704720F07F4CE2
:100D600080EA030023F07F47ACEB070303F57C53D5
:100D700000F0004003F1FF032DE980494FEA154BD5
:100D800009B44FEA144325EA0B4E24EA03480FF254
:100D9000042606EB132749083E785FEA320203FB7C
:100DA0000667C7F5000707FB06F64FEA54374FEA18
:100DB000D64606F1020607FB066CCCF1005C4FEA52
:100DC0001C472CEA074C07FB06F40CFB06F504EB6A
:100DD00015464FEA961634BF00204FF000404FEA08
:100DE000D13706FB07FC4FEA1C4C0CFB0BF7D21B60
:100DF00003FB0CF761EB07010CFB0EF7B0EB0740B0
:100E000072EB17420CFB08F734BFA2EB0742B2EBC0
:100E1000074261EB17414FEA0C444FEA910706FB8A
:100E200007FC4FEA1C4C0CFB0BF7B0EBC74072EB16
:100E3000573203FB0CF734BFA2EBC742B2EBC742F9
:100E400061EB57310CFB0EF7B0EBC70072EB57723A
:100E50000CFB08F734BFA2EBC702B2EBC70261EB91
:100E60005771039F4FEA816141EA921104EBCC0470
:100E70004FEAD1374FEA826206FB07FC42EA901242
:100E80004FEA80604FEA1C4C0CFB0BF7D21B03FBB4
:100E90000CF761EB07010CFB0EF7B0EB074072EBB0
:100EA00017420CFB08F734BFA2EB0742B2EB074234
:100EB00061EB17414FEA8C554FEA910704EB9C24F4
:100EC00006FB07FC4FEA1C4C0CFB0BF7B0EBC740D2
:100ED00072EB573203FB0CF734BFA2EBC742B2EB05
:100EE000C74261EB57310CFB0EF7B0EBC70072EB5A
:100EF00057720CFB08F734BFA2EBC702B2EBC70274
:100F000061EB577115EB4C254FEA816141EA921173
:100F10004FEA82624FEAD13742EA901206FB07FCA1
:100F200044F100044FEA80604FEA1C4C0CFB0BF7C5
:100F3000D21B03FB0CF761EB07010CFB0EF7B0EBC8
:100F4000074072EB17420CFB08F734BFA2EB0742D5
:100F5000B2EB074261EB174115EB1C154FEA8131EB
:100F600041EA92414FEA823242EA90424FEA8030AF
:100F70004FEA0C7644F1000448EA03434EEA0B487A
:100F80004FF0000EB2EB080C71EB030724BF624672
:100F900039464EEB0E0E4FF0000B001852414941FE
:100FA0004BEB0B0BB2EB080C71EB03077BF1000B67
:100FB00024BF624639464EEB0E0E4FF0000B001870
:100FC000524149414BEB0B0BB2EB080C71EB0307A1
:100FD0007BF1000B24BF624639464EEB0E0E51EA00
:100FE000020718BF46F0010616EB0E7655F1000217
:100FF00054F1000103D5BDE88901BDE80088BDE8D2
:101000008901BDE80048B619524141EB0101A3F145
:101010000103704780807F7E7D7C7B7A797877764C
:1010200076757473727171706F6E6E6D6C6C6B6AC5
:101030006A69686867666665646463636261616063
:10104000605F5F5E5E5D5D5C5C5B5B5A5A595958E0
:10105000585757565655555554545353525252514A
:10106000515050504F4F4F4E4E4D4D4D4C4C4C4BA0
:101070004B4B4A4A4A4949494848484747474746E7
:101080004646454545444444444343434342424223
:1010900042414141002B26D4770021D01CB54FEAB4
:1010A000370703B44FF010004FF010014FF000006D
:1010B0000FBCBDE810400BF1010BBBF1010F08BFE5
:1010C0005FEA170722BF12F1010211F101014FF08F
:1010D000004143F1000300F0004043EA0000704784
:1010E000F9D35708DAE746EA064613F1400F4FEA0C
:1010F00016461FDD13F1200FDFBF16430A460021FD
:1011000020335B42C8D0C3F1200746EA064602FA04
:1011100007F74FEA164646EA0706C3F1200722FA08
:1011200003F201FA07F721FA03F14FF0000342EA54
:101130000702B1E746EA020646EA06464FEA1646C5
:1011400046EA0106BCBF46EA0646360C4FF00003ED
:101150004FF000024FF000019EE72DE9C048934692
:1011600030B491E8380007C831EA400C48BF34EA8F
:10117000430C03D5FFF7F2FDFFF78CFFF0BCBDE891
:1011800000882DE9C048934630B491E8380007C87C
:1011900010F0804F08BF13F0804F03D100F005F826
:1011A000FFF778FFF0BCBDE8008820F07F4780EAB9
:1011B000030023F07F4C07EB0C03A3F57C5300F0F6
:1011C0000040A3F1FE0392F0000F00F0B38095F011
:1011D000000F00F077802DE901494FEA11404FEAF6
:1011E000144621EA004800FB06FC24EA064708FBF7
:1011F00006F607FB08F800FB07F718EB06484CEB70
:10120000164C4FEA124B18EB07484FEA15464CEBC9
:10121000174022EA0B4E0BFB06FC25EA06470EFBA5
:1012200006F607FB0EFE0BFB07F71EEB064E4CEB1C
:10123000164C4FF000061EEB074E4CEB174B18EB0D
:101240000B0840F1000018EB0E0B58EB000840F1C2
:1012500000008F1A4FF000013CBFC943661B14BF4A
:10126000B5EB040C00213CBFC943F61B4FEA174401
:101270004EEA8E0E27EA04454FEA1C4704FB07623C
:101280002CEA074C05FB07F70CFB05F604FB0CFCEE
:1012900016EB074642EB174216EB0C4642EB1C429C
:1012A0001BEB060658EB0202414146EA9E0601D5B9
:1012B000BDE80189B619524141EB0101A3F10103D7
:1012C000BDE801894FEA14454FEA114724EA054673
:1012D00021EA074C05FB07F406FB07F70CFB06F1B8
:1012E00005FB0CFC11EB074144EB17444FEA124796
:1012F00011EB0C4144EB1C4422EA074C05FB07F2BE
:1013000006FB07F70CFB06F605FB0CFC16EB074685
:1013100042EB174216EB0C4642EB1C456A1854F19F
:10132000000148BF7047B619524141EB0101A3F1DA
:101330000103704795F0000F37D04FEA11424FEA92
:10134000144721EA024624EA074C02FB07F106FB98
:1013500007F70CFB06F402FB0CFC14EB074441EB13
:1013600017414FEA154714EB0C4441EB1C4125EAA9
:10137000074C02FB07F506FB07F70CFB06F602FB22
:101380000CFC16EB074645EB174516EB0C4645EBF8
:101390001C42121951F1000148BF7047B619524161
:1013A00041EB0101A3F1010370474FEA14454FEAF5
:1013B000114724EA054621EA074C05FB07F106FB25
:1013C00007F70CFB06F24FF0000605FB0CFC12EBD6
:1013D000074241EB174112EB0C4251EB1C4148BF55
:1013E0007047921841EB0101A3F10103704721B14D
:1013F000826842F00102826003E0826822F001020A
:101400008260704710B504461248844208D1012119
:10141000401501F03BFC0021601501F037FC17E09E
:101420000D48844208D10121001501F02FFC002154
:10143000201501F02BFC0BE00848844208D1012163
:10144000C80301F023FC00214FF4004001F01EFC12
:1014500010BD00000024014000280140003C014074
:10146000014600208A6802F004020AB1012000E06F
:10147000002070470146C86C80B2704702460020C9
:1014800013680B400BB1012000E0002070470146BB
:1014900000208A6802F008020AB1012000E0002062
:1014A0007047000030B502460020002350680F4C02
:1014B00020400D790C6844EA052420435060906870
:1014C0000B4C2040D1E902542C434D7944EA4504A9
:1014D00020439060D06A20F470000C7C641EE4B25B
:1014E000234340EA0350D06230BD0000FFFEF0FF0E
:1014F000FDF7F1FFF0B504460D4600200021092D4F
:1015000011DDE068A5F10A0606EB4607072606FA94
:1015100007F18843A5F10A0606EB460603FA06F131
:101520000843E0600CE0206905EB4507072606FA52
:1015300007F1884305EB450603FA06F108432061ED
:10154000072A0FDA606B561E06EB86071F2606FA7F
:1015500007F18843561E06EB860605FA06F1084396
:10156000606322E00D2A0FDA206BD61F06EB860798
:101570001F2606FA07F18843D61F06EB860605FAF2
:1015800006F10843206310E0E06AA2F10D0606EBC5
:1015900086071F2606FA07F18843A2F10D0606EB1F
:1015A000860605FA06F10843E062F0BD816841F065
:1015B00008018160704721B1826842F4A002826014
:1015C00003E0826822F4A00282607047816841F0E3
:1015D000040181607047000000B587B001214FF41D
:1015E000017001F043FB4FF4004001F013FB0121B7
:1015F0001C4801F0E5F80E20ADF8040000208DF83D
:10160000070001A9184801F050F81848FFF7FAFE42
:10161000002002908DF80C008DF80D004FF4602032
:1016200004900020059001208DF8180002A90F48B1
:10163000FFF738FF01210D48FFF7D9FE0B48FFF7F0
:10164000B5FF00BF0948FFF722FF0028FAD107487D
:10165000FFF7BCFF00BF0548FFF702FF0028FAD1E3
:1016600007B000BD04002000000801400024014034
:1016700000BFFEE710B5012011490860642001F0A9
:10168000F9FE00200F49C1F89001642001F0F2FE3C
:1016900001200B490860642001F0ECFE002009499C
:1016A000C1F89001642001F0E5FE012004490860C2
:1016B000642001F0DFFE00200249C1F8900110BD56
:1016C000900121420000214230B5C9B0202141A83B
:1016D000FEF7BBFE00243C2000F07CFF9DA1012012
:1016E00000F048FF202141A8FEF7AFFE4FF48071C3
:1016F00001A8FEF7AAFE9DA001F000FC4FF47A704D
:1017000001F0B8FE0A21022001F0C0F89A490880D1
:1017100001A801F0A7FB99A141A8FEF768FE9BA1D3
:1017200001A8FEF752FE04464CB99AA19B48FEF769
:101730005EFE9B48006840F010009949086099A13E
:1017400001A8FEF742FE04464CB998A19348FEF763
:101750004EFE9348006840F020009149086095A132
:1017600001A8FEF732FE04464CB994A18B48FEF75F
:101770003EFE8B48006840F040008949086091A116
:1017800001A8FEF722FE04464CB990A18348FEF75B
:101790002EFE8348006840F08000814908608DA1DA
:1017A00001A8FEF712FE04464CB98DA18E48FEF743
:1017B0001EFE7B48006840F00100794908608BA15B
:1017C00001A8FEF702FE04464CB98BA18648FEF73D
:1017D0000EFE7348006840F002007149086088A15D
:1017E00001A8FEF7F2FD04464CB988A17E48FEF739
:1017F000FEFD6B48006840F004006949086085A15F
:1018000001A8FEF7E2FD04464CB985A17648FEF733
:10181000EEFD6348006840F008006149086082A15D
:1018200001A8FEF7D2FD04464CB981A18248FEF71B
:10183000DEFD5B48006840F48070594908607FA174
:1018400001A8FEF7C2FD04464CB97EA17A48FEF716
:10185000CEFD5348006840F40070514908607BA1F8
:1018600001A8FEF7B2FD04464CB97AA17248FEF712
:10187000BEFD4B48006840F480604949086077A18C
:1018800001A8FEF7A2FD04464CB976A16A48FEF70E
:10189000AEFD4348006840F40060414908603F489D
:1018A000007828B95048007810B96348007820B112
:1018B0006EA141A8FEF79BFD03E06EA141A8FEF7D3
:1018C00096FD3E2000F086FE41A9022000F052FE67
:1018D000412000F07FFE69A1012000F04BFE202195
:1018E00041A8FEF7B2FD6BA141A8FEF780FD4FF0C5
:1018F0007C516C4801F03EFD054602F0E9F980B2EA
:101900001D490988884211DD4FF07C51664801F07D
:1019100031FD054602F0DCF980B21749098888429A
:1019200004DA54A141A8FEF762FD09E04FA141A8E5
:10193000FEF75DFD1A48006840F4804018490860D1
:10194000462000F047FE41A9022000F013FE49B0F6
:1019500030BD0000202A20436865636B205041445D
:1019600020202020205B2E2E5D00000032323232FB
:101970003232235A2300000040000020202A204356
:101980006865636B205041442020200041313A308B
:101990002E333700413120200000000008070020CE
:1019A0004400002041323A302E33370041322020AB
:1019B0000000000041333A302E3134004133202002
:1019C0000000000041343A302E31340041342020F0
:1019D0000000000050313A303030303030303400C8
:1019E00050312020000000003A07002050323A30E9
:1019F00030303030303034005032202000000000D1
:101A000050333A30303030303030340050332020D2
:101A10000000000050343A30303030303030340084
:101A200050342020000000004B313A30000000000C
:101A300044312020000000006C0700204B323A3077
:101A40000000000044322020000000004B333A30F8
:101A50000000000044332020000000004B343A30E6
:101A60000000000044342020000000005B46616953
:101A70006C5D000020205B4F4B5D0000202A205051
:101A80006F7765722020203556202020205B2E2E77
:101A90005D000000202A20506F77657220202035DD
:101AA000562020009031A340B1BF9C4010B588B0B3
:101AB00020216846FEF7C9FC20216846FEF7C5FCD8
:101AC0005AA16846FEF793FC0A21012000F0DEFED1
:101AD0005A4908805A495B4801F04CFC044602F020
:101AE000F7F880B255490988884210DD54495648B4
:101AF00001F040FC044602F0EBF880B24F4909883F
:101B0000884204DA51A16846FEF771FC09E051A150
:101B10006846FEF76CFC5148006840F480504F491D
:101B200008600A2000F056FD6946012000F022FD01
:101B300020216846FEF789FC49A16846FEF757FC5C
:101B40000A21032000F0A2FE494908804FF07C5191
:101B5000484801F00FFC044602F0BAF880B244494C
:101B60000988884211DD4FF07C51434801F002FCA6
:101B7000044602F0ADF880B23D490988884204DA93
:101B800032A16846FEF733FC09E032A16846FEF751
:101B90002EFC3248006840F40050304908600F20A5
:101BA00000F018FD6946012000F0E4FC122000F06E
:101BB00011FD32A1012000F0DDFC4FF4967001F020
:101BC00059FC122000F006FD32A1022000F0D2FCE8
:101BD0004FF4967001F04EFC122000F0FBFC33A194
:101BE000022000F0C7FC4FF4967001F043FC122075
:101BF00000F0F0FC33A1022000F0BCFC4FF4967022
:101C000001F038FC122000F0E5FC34A1022000F0C5
:101C1000B1FC4FF4967001F02DFC142000F0DAFCBA
:101C200034A1022000F0A6FC08B010BD202A2050EC
:101C30006F77657220372E32562020003C0000203E
:101C4000CDCCCC3E08ACEA402A3AE44020205B4FA1
:101C50004B5D00005B4661696C5D00004400002044
:101C6000202A20506F77657220332E3356202000B3
:101C70003E000020D49A6A40CDCC4C40202A205708
:101C8000616974203573202E2E2E2020205B2E2E8D
:101C90005D000000202A2057616974203473202ED3
:101CA0002E2E2020205B2E2E5D000000202A2057A3
:101CB000616974203373202E2E2E2020205B2E2E5F
:101CC0005D000000202A2057616974203273202EA5
:101CD0002E2E2020205B2E2E5D000000202A205773
:101CE000616974203173202E2E2E2020205B2E2E31
:101CF0005D000000202A2057616974203073202E77
:101D00002E2E2020205B4F4B5D000000F0B589B0E7
:101D10000024202101A8FEF798FB202101A8FEF74E
:101D200094FB202101A8FEF790FB66A101A8FEF715
:101D30005EFB68496848008801F0F8FA074601F040
:101D4000D9FE05462A460B4664A10DF11200FEF7A6
:101D50004DFA642000F03EFC01A9012000F00AFCCD
:101D6000202101A8FEF771FB5DA101A8FEF73FFB52
:101D70004FF07C515E48008801F0D8FA074601F028
:101D8000B9FE05462A460B4654A10DF11200FEF796
:101D90002DFA642000F01EFC01A9012000F0EAFBEE
:101DA000202101A8FEF751FB52A101A8FEF71FFB5D
:101DB0004FF07C515348008801F0B8FA074601F013
:101DC00099FE05462A460B4644A10DF11200FEF786
:101DD0000DFA642000F0FEFB01A9012000F0CAFB0F
:101DE00049494A48FEF7F1FA0446002C2DD120213A
:101DF00001A8FEF72AFB46A101A8FEF7F8FA43491D
:101E00000C3101A8FEF7F3FA642000F0E3FB01A90E
:101E1000012000F0AFFB202101A8FEF716FB3EA138
:101E200001A8FEF7E4FA38490C3101A8FEF7DFFA01
:101E3000642000F0CFFB01A9012000F09BFB384893
:101E4000006840F48010364908603648007830B1A8
:101E5000642000F0BFFB3349012000F08BFB3248C7
:101E6000007830B1642000F0B5FB2F49012000F06C
:101E700081FB2E48007830B1642000F0ABFB2B4989
:101E8000012000F077FB202101A8FEF7DEFA28A14F
:101E900001A8FEF7ACFA224828A102680DF10F0054
:101EA000FEF7A4F9642000F095FB01A9012000F0E1
:101EB00061FB642000F08EFB21A1012000F05AFBA1
:101EC00009B0F0BD372E3256282B2D3130306D56EB
:101ED000293A0000CDCCCC3E3C00002025356600E0
:101EE000332E3356282B2D3130306D56293A0000D1
:101EF0003E000020352E3056282B2D3130306D56C7
:101F0000293A000040000020E8060020C806002012
:101F100054696D6520313A0054696D6520323A008C
:101F200044000020080700203A0700206C0700202A
:101F30004572726F7220436F64653A00253858000D
:101F40002E2E2E202E2E2046696E697368202E2E8E
:101F5000202E2E2E0000000010B504A000F09BFBE8
:101F6000FFF7A4FD00F0C8FA10BD000031292D20B4
:101F700020205465737420506F77657220202D28BF
:101F80003400000010B506A000F085FB00F060F9F9
:101F9000FFF79AFB00F040F800F0AEFA10BD000029
:101FA00032292D2020546573742053746174207875
:101FB00031202D283400000010B506A000F06BFB86
:101FC00000F0F2F800F08CF800F014FA00F094FA47
:101FD00010BD000033292D202054657374205374E4
:101FE0006174207832202D283400000010B504A040
:101FF00000F051FBFFF78AFEFFF73CFB10BD00002D
:1020000034292D204572726F72204D65737361679C
:1020100065202D283400000010B5C8B000244B20E6
:1020200000F0D8FA1BA1012000F0A4FA4FF480714F
:1020300008A8FEF70AFA20211C48FEF7E4F920213F
:102040006846FEF702FA1AA000F058FF08A800F050
:1020500009FF1AA16846FEF7CAF91CA108A8FEF7F5
:10206000B4F9044644B108A91048FEF7C0F918A114
:102070006846FEF7BCF903E017A16846FEF7B7F91A
:10208000502000F0A7FA6946022000F073FA48B029
:1020900010BD0000202A205265616420436C6F63EC
:1020A0006B202020205B2E2E5D000000C806002043
:1020B00036363636363623433F230000202A205258
:1020C00065616420436C6F636B202000433A00001D
:1020D00020205B4F4B5D00005B4661696C5D00003A
:1020E00010B5C8B000245A2000F074FA1BA10120DA
:1020F00000F040FA4FF4807108A8FEF7A6F92021FD
:102100001C48FEF780F920216846FEF79EF91AA0C8
:1021100000F0F4FE08A800F0A5FE1AA16846FEF73C
:1021200066F91CA108A8FEF750F9044644B108A9B5
:102130001048FEF75CF918A16846FEF758F903E06D
:1021400017A16846FEF753F95C2000F043FA694690
:10215000022000F00FFA48B010BD0000202A2052E3
:1021600065616420436C6F636B202020205B2E2E02
:102170005D000000E806002036363636363623434A
:102180003F230000202A205265616420436C6F6366
:102190006B202000433A000020205B4F4B5D000085
:1021A0005B4661696C5D000010B5552000F012FAC5
:1021B00019A1012000F0DEF900201D4908604FF44C
:1021C0007A7001F057F94FF47A7001F053F94FF437
:1021D0007A7001F04FF94FF47A7001F04BF9012059
:1021E0001449C1F894014FF47A7001F043F94FF4A7
:1021F0007A7001F03FF94FF47A7001F03BF94FF437
:102200007A7001F037F9582000F0E4F90AA10220B1
:1022100000F0B0F910BD0000202A205265626F6FF7
:102220007420202020202020205B2E2E5D00000026
:102230009401214200002142202A205265626F6FE2
:102240007420202020202020205B4F4B5D000000C8
:1022500070B5C8B0202140A8FEF7F7F80024394D2A
:10226000394E1E2000F0B6F938A1012000F082F9A5
:102270004FF480716846FEF7E8F83AA000F03EFEA1
:10228000684600F0EFFD3CA140A8FEF7B0F83EA183
:102290006846FEF79AF8044624B941A140A8FEF723
:1022A000A6F803E040A140A8FEF7A1F82CB94048E9
:1022B000006840F480303E490860202000F08AF930
:1022C00040A9022000F056F93CB93AA1012000F0E3
:1022D00051F9FFF7CFF900BFFEE7242000F07AF9AB
:1022E0003AA1012000F046F9202140A8FEF7ADF800
:1022F0004FF480716846FEF7A8F8284600F0FEFD0E
:10230000684600F0AFFD37A140A8FEF770F83146EF
:102310006846FEF75AF8044624B921A140A8FEF702
:1023200066F803E020A140A8FEF761F800F002FC87
:10233000282000F04FF940A9022000F01BF948B016
:1023400070BD0000683F0008BC3F0008202A2052F2
:102350005334383520434F4D20202020205B2E2E33
:102360005D00000036363636363623413A34343492
:102370003434343430230000202A2052533438358A
:1023800020434F4D2020200053543A343434343409
:102390003434303B413A3434343434343430000053
:1023A0005B4661696C5D000020205B4F4B5D000067
:1023B000440000205B2A202A2050202041202A208F
:1023C00053202053202A202A5D000000202A204983
:1023D0006E6974202050414443202020205B2E2E23
:1023E0005D000000202A20496E697420205041447D
:1023F0004320200010B5C8B05C2000F0EBF81BA112
:10240000012000F0B7F8202140A8FEF71EF84FF495
:1024100080716846FEF719F81AA000F06FFD684653
:1024200000F020FD1AA140A8FDF7E1FF1CA16846BD
:10243000FDF7CBFF044624B91AA140A8FDF7D7FF4A
:1024400003E01AA140A8FDF7D2FF2CB91948006893
:1024500040F0807017490860642000F0BBF840A984
:10246000022000F087F848B010BD0000202A204468
:10247000657669636520536C65657020205B2E2E40
:102480005D00000036363636363623473A312300B3
:10249000202A2044657669636520536C6565700069
:1024A000473A31005B4661696C5D000020205B4F5C
:1024B0004B5D00004400002070B50246DC23981AF2
:1024C00084B2162092FBF0F500FB152010B14FF0FE
:1024D000FF3070BD214608E0481E064D2D5C181BDC
:1024E0000844401E034E3554491E0029F4DC181BD5
:1024F000EFE700001005002070B500240EE0002575
:1025000009E0202004EB440101EBC40105EB41018B
:10251000054A50546D1C152DF3DB641C0A2CEEDBB0
:1025200000F012F870BD00001005002010B500F09A
:10253000D9F9C82000F09EFFC821002000F05AFF02
:10254000002000F068FF10BD70B506240CE0C4F157
:1025500006000749162505FB0013E006020E0021C0
:10256000084600F0EFFF641E002CF0DC70BD000098
:10257000100500202DE9F04107460C460025A8462D
:10258000012F09D11620FFF797FF8046B8F1000F01
:1025900002DA4046BDE8F08106E014F8012B284637
:1025A000691CCDB20A490A54207808B1152DF4DB14
:1025B0002E4603E0202006498855761C152EF9DBAF
:1025C000002003494875FFF7BFFF2846E2E70000F7
:1025D000100500202DE9F04387B0044604EB4400C9
:1025E0001FFA80F8142098FBF0F01FFA80F84FF4DF
:1025F0007A7094FBF0F100FB114086B2642096FBE8
:10260000F0F086B2642094FBF0F100FB114087B239
:102610000A2097FBF0F087B20A2094FBF0F100FB50
:1026200011401FFA80F9002509E0454503DA3E20F4
:1026300001A9485502E0202001A948556D1C0F2D25
:10264000F3DB20208DF813008DF8140006F1300024
:10265000C0B28DF8150007F13000C0B28DF8160039
:1026600009F13000C0B28DF8170025208DF8180050
:1026700000208DF8190001AB38220021084600F037
:1026800061FF6420704307EB870100EB4100484481
:1026900007B0BDE8F08310B504462346002211467A
:1026A000104600F04FFF10BD70472DE9F041024683
:1026B00000250026002000230024002791F803C0F5
:1026C0000CF00F0591F803C00CF0100CBCF1000FDA
:1026D00003D091F802C04CEA050591F800C0BCF1A6
:1026E000000F31D0146800202BE04FF0010C0CFAE1
:1026F00000F3B1F800C00CEA03069E4220D183002B
:102700004FF00F0C0CFA03F7BC4305FA03FC4CEA3C
:10271000040491F803C0BCF1280F06D14FF0010C5E
:102720000CFA00FCC2F814C00AE091F803C0BCF136
:10273000480F05D14FF0010C0CFA00FCC2F810C094
:10274000401C0828D1D31460B1F800C0BCF1FF0FC1
:1027500034DD546800202EE000F1080C4FF0010831
:1027600008FA0CF3B1F800C00CEA03069E4221D12E
:1027700083004FF00F0C0CFA03F7BC4305FA03FC7F
:102780004CEA040491F803C0BCF1280F05D100F114
:10279000080C08FA0CF8C2F8148091F803C0BCF1D8
:1027A000480F07D100F1080C4FF0010808FA0CF8A7
:1027B000C2F81080401C0828CED35460BDE8F081D8
:1027C000F0B50A46002300240021002500F0004651
:1027D000B6F1004F02D11D4EF16901E01B4E716848
:1027E000C0F3034583B200F44016B6F5401F08D18C
:1027F00021F07061154E766826F07066134F7E608A
:1028000012E000F48016B6F5801F06D1032606FA02
:1028100005F4A14341F0706106E0460D360103FA6C
:1028200006F6B14341F0706122B1460D360103FA5C
:1028300006F6314300F00046B6F1004F02D1034ED8
:10284000F16101E0014E7160F0BD00000000014047
:10285000416170470161704710B5044607230122AA
:1028600021460948FEF746FE01210748FEF7A3FE70
:1028700000BF02210448FEF701FE0028F9D00248FB
:10288000FEF7F8FD10BD0000002401402DE9F041E5
:1028900007460C460025002608E03846FFF7DCFF17
:1028A0000544052000F0E6FD701CC6B2A642F4DB2C
:1028B000B5FBF4F080B2BDE8F08100BFFEE7000098
:1028C00010B540210648FFF7C5FF0A2000F0F8FDCB
:1028D00040210348FFF7BCFF0A2000F0F1FD10BDC6
:1028E0000008014008B54020ADF8000001208DF837
:1028F000020010208DF8030069460E48FFF7D5FE50
:102900004FF48070ADF8000069460A48FFF7CDFE2D
:102910008020ADF8000048208DF803006946054886
:10292000FFF7C3FE40210348FFF792FF00F042F893
:1029300008BD00000008014070B50446002513E002
:1029400004F0800028B14FF480710A48FFF782FF3D
:1029500004E04FF480710748FFF77AFF6006040E29
:10296000FFF7AEFF681CC5B2082DE9DBFFF7A8FF33
:1029700070BD00000008014010B5642000F07AFD31
:1029800040210B48FFF766FF322000F099FD4FF41D
:1029900080710748FFF75CFF322000F091FD402175
:1029A0000348FFF755FF322000F08AFD10BD0000FC
:1029B0000008014010B54FF480710E48FFF748FF42
:1029C000322000F07DFD40210A48FFF743FF32200E
:1029D00000F076FD4FF480710648FFF73BFF322090
:1029E00000F06EFD40210348FFF732FF322000F077
:1029F00067FD10BD0008014008B501210C2000F062
:102A000035F91020ADF800008DF8030003208DF893
:102A1000020069462048FFF748FE10211E48FFF7D4
:102A200017FF2020ADF8000010208DF803000320D0
:102A30008DF8020069461848FFF737FE2021164836
:102A4000FFF708FF4FF4F050ADF8000010208DF8AC
:102A5000030003208DF8020069460F48FFF725FEAA
:102A600000200E4908600E49C1F8A8010B49083141
:102A700008600B49C1F8B0014FF47040ADF8000098
:102A800010208DF8030003208DF8020069460548E8
:102A9000FFF70BFE08BD000000080140A401214221
:102AA00000002142000C014000BFFEE7704700001B
:102AB00070B5002100230F22C47804B3154C24689C
:102AC00004F4E064C4F5E064210AC1F10403CA40DF
:102AD000447804FA03F184781440214309010E4C30
:102AE0000678A155047804F01F050124AC40057850
:102AF0006D11AD0005F1E025C5F8004109E004784D
:102B000004F01F050124AC40044D0678761145F809
:102B1000264070BD0CED00E000E400E080E100E044
:102B200002490143024A1160704700000000FA05A3
:102B30000CED00E010B50020334908603349C1F8BE
:102B4000A8013149083108603049C1F8B00164205A
:102B500000F090FC01202C490860091D0860091D47
:102B600008602A49C1F8B001642000F083FC00200D
:102B700025490860091D0860091D08602349C1F83E
:102B8000B001642000F076FC01201F490860091D97
:102B90000860091D08601D49C1F8B001642000F0FB
:102BA00069FC002018490860091D0860091D0860BB
:102BB0001649C1F8B001642000F05CFC0120124904
:102BC0000860091D0860091D08601049C1F8B001BE
:102BD000642000F04FFC00200B490860091D0860CC
:102BE000091D08600949C1F8B001642000F042FCE9
:102BF000012005490860091D0860091D0860034996
:102C0000C1F8B00110BD0000A40121420000214222
:102C10007047000001460020034A506820F44040FD
:102C200008435060704700000010024029B1064A76
:102C3000D2690243044BDA6104E0034AD269824359
:102C4000014BDA61704700000010024029B1064ACA
:102C500012690243044B1A6104E0034A1269824379
:102C6000014B1A61704700000010024029B1064A6A
:102C700092690243044B9A6104E0034A92698243D9
:102C8000014B9A61704700000010024029B1064ACA
:102C9000D2680243044BDA6004E0034AD2688243FC
:102CA000014BDA60704700000010024030B500218F
:102CB0000022002400232D4D6D6805F00C0121B188
:102CC000042905D0082923D105E0294D056022E01B
:102CD000274D05601FE0254D6D6805F47012234DEA
:102CE0006D6805F48034022505EB92421CB9214D34
:102CF000554305600BE01D4D6D6805F400351DB1B1
:102D00001C4D5543056002E0194D5543056002E036
:102D1000174D056000BF00BF144D6D6805F0F00150
:102D20000909154D6B5C0568DD4045600F4D6D6808
:102D300005F4E061090A104D6B5C4568DD40856073
:102D40000A4D6D6805F46051C90A0B4D6B5C45680E
:102D5000DD40C560054D6D6805F44041890B074DA8
:102D60006B5CC568B5FBF3F5056130BD0010024032
:102D700000127A0000093D00000000201000002031
:102D800010B586B0044601210820FFF76FFF01212E
:102D90008804FFF74BFF01212E48FFF711FD4FF488
:102DA0000070ADF8140010208DF8170003208DF886
:102DB000160005A92848FFF778FC4FF48060ADF8AD
:102DC000140018208DF8170005A92348FFF76DFCA3
:102DD0004FF40060ADF8140004208DF8170005A929
:102DE0001D48FFF762FC01218804FFF72FFF002137
:102DF0004FF48020FFF72AFF01940020ADF808006F
:102E0000ADF80A00ADF80C00ADF810000C20ADF8DC
:102E10000E0001A9114800F011FA27208DF80000DA
:102E200003208DF801008DF8020001208DF80300C9
:102E30006846FFF73DFE012240F22551074800F0A9
:102E4000D8F90121054800F091F9002004490860F3
:102E500006B010BD30001400000C014000480040D6
:102E6000A48121422DE9F04105460026002702E019
:102E7000642000F0FFFA1348006820B93846791C36
:102E80008FB24628F4DB00BF0E48008886B24FF4AC
:102E9000FA7000F0EFFA0B4800688642F4D1002087
:102EA00008490860002405E0074810F82400285568
:102EB000601CC4B2B442F7DB002028553046BDE8A0
:102EC000F0810000340000201001002010B50446FD
:102ED00000BF4021084800F055F90028F9D02146EC
:102EE000054800F01CFA00BF4021034800F04AF9F1
:102EF0000028F9D010BD00000048004070B504461D
:102F0000002501200849086005E014F8010BFFF7CF
:102F1000DDFF681C85B2207808B1FF2DF5DD0020AB
:102F200001490860284670BDA4812142704710B550
:102F300000F002F810BD00000CB5002001900090D8
:102F40003348006840F480303149086000BF3048A1
:102F5000006800F4003000900198401C0190009837
:102F600018B90198B0F5A06FF1D12948006800F4B4
:102F7000003010B10120009001E000200090009886
:102F8000012843D12348006840F01000214908601F
:102F90000846006820F0030008600846006840F01A
:102FA000020008601A4840681949486008464068AD
:102FB00048600846406840F48060486008464068C1
:102FC00020F47C1048600846406840F4E8104860EF
:102FD0000846006840F08070086000BF0C48006838
:102FE00000F000700028F9D00948406820F0030084
:102FF000074948600846406840F00200486000BF4A
:103000000348406800F00C000828F9D10CBD00000E
:103010000010024000200240042808D14FF0E021B7
:10302000096941F004014FF0E022116107E04FF01F
:10303000E021096921F004014FF0E022116170479D
:103040007047000010B51348006840F001001149B6
:10305000086008464068104908400E494860084624
:1030600000680E4908400B4908600846006820F4D3
:10307000802008600846406820F4FE0048604FF455
:103080001F008860FFF753FF4FF00060044908609D
:1030900010BD0000001002400000FFF8FFFFF6FE28
:1030A00008ED00E010B540F225511D4800F077F81A
:1030B00010B31B4800F02EF9C4B21A48008800F47F
:1030C0000040C8B91748008800F4804060B10A2C5D
:1030D00003D000201349088020E01248008840F403
:1030E00000401049088019E00D2C06D10D480088D9
:1030F00040F480400B49088010E00A480088C0F383
:103100000D0009490C5407480088401C05490880F7
:1031100008460088C72801DD0020088010BD000097
:1031200000380140300000204800002010B540F277
:1031300025510B4800F033F888B1094800F0EAF84F
:10314000C4B208480068FF2809D80748054909683B
:1031500040F8214003480068401C0249086010BD47
:1031600000480040340000201001002021B1828975
:1031700042F40052828104E082894DF6FF731A40C6
:103180008281704702460020B1F5007F00D100BF68
:1031900013880B400BB1012000E00020704770B590
:1031A0000246002400230025002040F66A16B142A2
:1031B00000D100BFC1F3421501F01F03012606FA3A
:1031C00003F3012D02D19689334006E0022D02D18E
:1031D000168A334001E0968A33400C12012606FA23
:1031E00004F41688344013B10CB1012000E0002033
:1031F00070BDF0B50346002400260025002040F6EF
:103200006A17B94200D100BF1846C1F3421401F059
:103210001F06012707FA06F5012C01D10C3004E046
:10322000022C01D1103000E014301AB107682F438E
:10323000076002E00768AF430760F0BD2DE9F04783
:1032400086B005460E460024A24600BFA1460027D0
:10325000B08900B100BF2F462C8A4CF6FF700440A5
:10326000F08804432C82AC894EF6F3100440B088F9
:1032700031890843718908430443AC81AC8A4FF615
:10328000FF400440B0890443AC8201A8FFF70EFD63
:103290001F48874202D1DDF810A001E0DDF80CA044
:1032A000A88900F4004040B10AEBCA0000EB0A1004
:1032B00031684900B0FBF1F807E00AEBCA0000EB07
:1032C0000A1031688900B0FBF1F86420B8FBF0F017
:1032D00004012009642101FB1089A88900F4004041
:1032E00040B1322000EBC900B0FBF1F000F0070064
:1032F000044308E0322000EB09106421B0FBF1F038
:1033000000F00F0004432C8106B0BDE8F0870000F8
:103310000038014001468888C0F308007047C1F3B7
:1033200008028280704700BFFEE700002DE9F84FD9
:1033300082468B4600200090504600F0C9FA804635
:103340004FF06632094B00F0D7FA06460022084BD0
:1033500000F066F9044600F031F9009059460098F3
:1033600000F0F4FB00900098BDE8F88F66660A4014
:103370000000B0402DE9F05F044689464FF0000A96
:103380004FF08B41204600F0C3FC834600F0B2FBB7
:1033900007464FF06632074B00F042F9054600F051
:1033A0000DF982464946504600F0B2FC824650462E
:1033B000BDE8F09F66660A40490050EAC12018BF88
:1033C00004204A0D18BF40F0010040F2FF72B2EB3A
:1033D000515F08BF40F00200012808BF0520704778
:1033E00030380A2801D2012070470020704701467A
:1033F00000BF704770B505460C46FFF7BDFA28467A
:10340000FFF79AFA1320FFF797FA2046FFF794FA8E
:10341000FFF7D0FA70BD10B50446FFF7ADFA2046AD
:10342000FFF78AFA1020FFF787FAFFF7C3FA10BDFB
:1034300010B56FF00400FFF7EFFD0A4800680A4975
:10344000B0FBF1F0094908700846007800EB400134
:10345000C1EBC0104FF6FF7101EAC00004490880BB
:1034600010BD00001400002000127A002800002087
:103470002A0000200146114A12884A434FF0E023F7
:103480005A6100229A611A46126942F001021A61D9
:1034900000BF4FF0E022106900F001021AB100F401
:1034A0008032002AF5D04FF0E022126922F00102AA
:1034B0004FF0E0231A6100229A6170472A00002031
:1034C0000146114A12784A434FF0E0235A61002224
:1034D0009A611A46126942F001021A6100BF4FF068
:1034E000E022106900F001021AB100F48032002AD3
:1034F000F5D04FF0E022126922F001024FF0E023F4
:103500001A6100229A61704728000020FFF790FF9F
:103510004FF4A060FFF704FBFFF794FDFFF76CFA90
:10352000FEF75AF84FF41650FFF72AFCFEF7FEFF9D
:10353000FEF712FDFEF726FDFEF73EFDFEF756FDF7
:1035400000BFFEE72DE9F04107460D4616461C4632
:10355000FFF712FA3846FFF7EFF92020FFF7ECF9F2
:103560002846FFF7E9F93046FFF7E6F92420FFF790
:10357000E3F903E014F8010BFFF7DEF920780028E7
:10358000F8D1FFF7D9F9FFF715FABDE8F08100008F
:1035900010B500290AD00878002807D005487844DB
:1035A000FDF72AFB002801D0002010BD0248784416
:1035B00010BD0000820A00007A0A000021F00042DB
:1035C000A2F16052B2F5801F01F0004328BFD2F192
:1035D0007F6C0BD95FEA001C43EAC20242EB5070D9
:1035E00018BF704728BF20F001007047B2F5801F58
:1035F000BCBF184670474FEA410C1CF5001F02D2B1
:10360000084600F04CBC70B500F020FA00000089BC
:10361000FFF7F6BF4FF00040A0F5800070470000B4
:103620002DE9C04130B4DFF8A0C23CEA111418BF44
:103630003CEA131400F0EC8081EA03051CEA111443
:1036400044EAD57418BF1CEA131500F0C780A4EB38
:1036500005044FF0004545EAC12145EAC32341EA8C
:10366000505143EA525304F17F74994204F50034F7
:103670004FEAC0204FEAC22208BF904200F09C806F
:103680004FEA13650FF24016765D4FEA134506FBCD
:1036900005F7C7F1807706FB07F74FEAD737A7FB97
:1036A00003687642C8F58038A7FB06CE38BFA8F17C
:1036B000010807FB08E64FF0000EA6FB028CE6FBB4
:1036C00003CEDCF1000CCEF1004E38BFAEF1010E9E
:1036D000A6FB0C584FF000074FF00005E6FB0E87E5
:1036E000A1FB08C6A0FB07CE16EB0E0645F10005B0
:1036F000E1FB076515F1E04E7EBFA4F580345FEA7B
:1037000046066D4116F1800745F100054FEA17277F
:103710004FEA066647EA0567A6F1DE46B6F1805F26
:103720004FEA15251FD9384624F0010C05EBC4716A
:10373000BCF1FE6F01EB0C1102D8F0BCBDE80081BA
:1037400024425CBF01F5801E9EEAC47F02D4F0BC17
:10375000BDE80081244238D4F0BCA1F1C041BDE8ED
:10376000004100F0C1B94FEAD22242EA43524FEA87
:10377000D323A7FB02864FEAD02040EA415007FB43
:1037800003661EEA0E0F4FEAD12105FB026658BF01
:10379000A6EB0056B6EB00564FEA520E4EEAC37E39
:1037A00018EB0E0E56EB530EBDD518EB02085E411A
:1037B0007F1C55F10005B6E74FF480154FF0000768
:1037C0004FF000064FF00008ADE7F0BC4FF00000EE
:1037D00001F1C04101F00041BDE8008111EA0C1F78
:1037E0000CEA131500D00CE013EA0C1F00F0258042
:1037F0004FF00000F0BC81EA030101F00041BDE898
:103800000081F0BCBDE8004181EA030100F06CB921
:10381000F0BCBDE8004170B500F018F9097EFC3E2F
:1038200000F007B881EA03014FF0000001F0004109
:10383000704781EA030100F057B9F0BCBDE80041D0
:103840004FF0000021497047FFFDFBF9F7F5F4F256
:10385000F0EEEDEBE9E8E6E4E3E1E0DEDDDBDAD82B
:10386000D7D5D4D3D1D0CFCDCCCBCAC8C7C6C5C489
:10387000C2C1C0BFBEBDBCBBBAB9B8B7B6B5B4B3A0
:10388000B2B1B0AFAEADACABAAA9A8A8A7A6A5A48B
:10389000A3A3A2A1A09F9F9E9D9C9C9B9A9999984F
:1038A0009797969595949393929191908F8F8E8EF2
:1038B0008D8C8C8B8B8A898988888787868585847F
:1038C00084838382828181800000FF070000F87F6B
:1038D000B0FA80F310FA03F10AD0C3F11D0303F527
:1038E00080634FEA41504FEA035202EBD121704707
:1038F0004FF0000070470000DFF848C170B51CEAC7
:10390000111E1EBF1CEA13159EEA0C0F95EA0C0F40
:1039100000F06F8081EA030423EA4C134EEAD47E60
:1039200021EA4C1141F4801143F48013AE44A1FB11
:10393000024CA0FB0365AEF17F7E361955EB0C05FA
:10394000A1FB034C4CF10003A0FB021C16EB0C0680
:10395000654153F10003094218BF46F0010613F414
:10396000007F0BD14FEA03314FEA0530340341EABF
:10397000155140EA16506FF003020AE04FEAC321E6
:103980004FEAC520F40241EA555140EA56506FF023
:10399000020202EB2E4201EB025585EACE710AD0FB
:1039A0005FEA440C18BF24F0004450F1000041F1DC
:1039B000000120EAD47040F2FE7C624500D270BD66
:1039C000A84214BF4FF080444FF04044002E08BF7F
:1039D0000024BEF1806FA8BFA1F1C041BDE87040D6
:1039E00080F282804FF0000001F1C04101F00041FF
:1039F00070479EEA0C0F0CEA131518BF95EA0C0FDE
:103A000006D04FF0000081EA030E0EF0004170BDB9
:103A100000F01CF88900013E00F007B800F009B87A
:103A20004FEA430C5FEA5C5C08D081EA030100F0D6
:103A30005BB84FEA410C5FEA5C5CF6D14FF00000E6
:103A4000014970470000FF070000F87F0EF1020EE9
:103A50002EF0030E5EF8046B364205D4012A43EBC8
:103A6000030515F5001F12D8012841EB010C1CF5C8
:103A7000001F0CD80ED14FEAD17C15F5001F0CEBBE
:103A80004C0C0CF1020C08BF4CEBD37C04E04FF063
:103A9000080C01E04FEAD37C0CEB4C0526FA05F646
:103AA00006F00706B6F1040C06D20EEB860CBDE854
:103AB00070404CF0010C6047DFE80CF0090B02028B
:103AC0004FF000414FF00000A1F5002170BD1946F4
:103AD0001046012851EB010418BFD4F5001484BF2F
:103AE000002001F0004170BD0808A0F500114FEA68
:103AF0003101704743004FEAD30C4FEA3C0C43407E
:103B00001FBF40070CF1605113F0FE4F70471CF0CF
:103B1000006F03D100200CF0004170470CF000430F
:103B200043EA507010B540EACC0000F072F900BFD3
:103B3000000000924FEA0001FFF7D6BF4FF00041AE
:103B40004FF00000A1F50021704700004FF47F0CFA
:103B50001CEAD0121EBF1CEAD11392EA0C0F93EAA2
:103B60000C0F00F0858090EA010F48BF42F480728C
:103B700040F4000C41F400002CF07F4120F07F4025
:103B800000B58142A2EB03020FF2081CACEB504ED1
:103B9000C0F100009EF800E04FEA4E0E00FB0EFC64
:103BA00038BF49004FEA2C1C02F5FA020CFB0EF359
:103BB0004FEACE1E4FEA112C4FEAC1210EEB635E95
:103BC00042EB22420EFB0CFC4FEA1C5300FB03119C
:103BD0004FEA112C4FEA01310EFB0CFC4FEADC4C92
:103BE00000FB0C11C14228BF09184CEB03335DF8F0
:103BF00004EB10EB410143EBC250B2F57C0F38BF30
:103C0000704729D512F0F00F1CBF00F1C04000F042
:103C100000407047008182838485868788898B8CE9
:103C20008D8E8F919293959697999A9C9D9FA0A225
:103C3000A3A5A7A8AAACAEB0B2B3B5B7B9BCBEC075
:103C4000C2C5C7C9CCCED1D4D7D9DCDFE2E6E9EC16
:103C5000F0F3F7FAFE0000004FEA400C0CF1807C14
:103C6000BCF17E4F28BF7047B0F1C04000F017B9DB
:103C700090EA010F0CEAD11348BF42F4807262450A
:103C800038BF634507D213F47F0F16D080EA0100D6
:103C900000F00040704710B500F0BBF8097EFC3E14
:103CA00000F005B880EA010000F00040704780EAAB
:103CB000010000F0004000F0F2B812F47F0F04BFE2
:103CC0000248704780EA010000F0E9B80000C07FB8
:103CD000C10DD1F19E0206DB4FEA002343F0004301
:103CE00023FA02F07047004207D54FEA4001B1F1D4
:103CF000FE4F02D24FF00000704710B500F089F877
:103D000049922480002070476FEA2000704700002D
:103D10004FF47F0C1CEAD0121EBF1CEAD11392EAAA
:103D20000C0F93EA0C0F00F0478090EA010F48BF98
:103D300042F480724FF0004C4CEA00204CEA012122
:103D400002EB0302A0FB0113A2F50002002918BF39
:103D500043F001035B0028BF4FEA330342EB2242EA
:103D60005FEA132C4CEBC2502EBFBCEB436FB2F595
:103D70007C0F70474FEA036CBCF1004F08BF20F086
:103D80000100B2F57C0F38BF70470BD582F0FF02FF
:103D900012F5803FC8BF704700F1C040D8BF00F0A7
:103DA0000040704700F5000C5FEA4C0C48BF7047BC
:103DB000B0F1C04000F073B890EA010F0CEAD113E3
:103DC00048BF42F48072624538BF634504D280EA3E
:103DD000010000F00040704710B500F01AF800BF75
:103DE0008900013E00F007B800F009B85FEA410C15
:103DF0005FEA1C6C08D080EA010000F050B85FEA6E
:103E0000400C5FEA1C6CF6D14FF00040A0F580003A
:103E100070470EF1020E2EF0030E5EF8044B2442A2
:103E200004D44FEA4102B2F17F4F11D84FEA400368
:103E3000B3F17F4F0CD80ED14FEAD07CB2F17F4F57
:103E40000CEB4C0C0CF1020C08BF4CEBD17C04E0E9
:103E50004FF0080C01E04FEAD17C0CEB4C0324FA44
:103E600003F404F00704B4F1040C06D20EEB840C46
:103E7000BDE810404CF0010C6047DFE80CF007088B
:103E800002024FF00040A0F5800010BD084642003D
:103E900018BFD2F1807288BF00F0004010BDFF2132
:103EA00041EAD050C0057047FCF72ABC30313233AC
:103EB000343536373839414243444546403058005E
:103EC0003031323334353637383961626364656690
:103ED0004030780002400000000000A00000000018
:103EE00005400000000000C8000000000C40000079
:103EF0000000409C00000000194000000020BCBEF3
:103F00000000000034400000BFC91B8E0000000408
:103F1000B5400000504BCFD06607E2CF0100000053
:103F20006C4100003E8251AADFEEA7340100000080
:103F3000D9420000DCB5A0E23A301F97FFFFFFFF37
:103F4000B4450000FD25A0C8E9A3C14FFFFFFFFF56
:103F5000FF3F00000000008000000000FF3F000065
:103F60000000008000000000363636363636235119
:103F70003A3737373730303030303030303030301B
:103F80003050313A303030303030303050323A30DA
:103F90003030303030303050333A303030303030F4
:103FA000303050343A3030303030303030433A31C5
:103FB000383035313530393030230000513A373719
:103FC00037373030303030303030303030303B50B8
:103FD000313A30303030303030303B50323A30309F
:103FE0003030303030303B50333A30303030303099
:103FF00030303B50343A30303030303030300000E8
:104000003C40000800000020480000002801000893
:104010008440000848000020B80D0000440100085A
:104020001C00000043000000F8FFFFFF0C00000030
:104030000E0000000F0000002E0000000000000035
:10404000010203040102030406070809020406082A
:1040500000A24A0400000000000000000102030466
:104060000607080900000000000000000000000032
:104070000000000000000000000000000000000040
:04408000000000003C
:04000005080000ED02
:00000001FF
